{
  "contractName": "PPR",
  "abi": [
    {
      "constant": true,
      "inputs": [],
      "name": "accessGroup",
      "outputs": [
        {
          "name": "",
          "type": "uint256"
        }
      ],
      "payable": false,
      "stateMutability": "view",
      "type": "function"
    },
    {
      "constant": true,
      "inputs": [],
      "name": "owner",
      "outputs": [
        {
          "name": "",
          "type": "address"
        }
      ],
      "payable": false,
      "stateMutability": "view",
      "type": "function"
    },
    {
      "constant": true,
      "inputs": [],
      "name": "viewer",
      "outputs": [
        {
          "name": "",
          "type": "address"
        }
      ],
      "payable": false,
      "stateMutability": "view",
      "type": "function"
    },
    {
      "inputs": [
        {
          "name": "owner_",
          "type": "address"
        },
        {
          "name": "viewer_",
          "type": "address"
        },
        {
          "name": "accessGroup_",
          "type": "uint256"
        }
      ],
      "payable": false,
      "stateMutability": "nonpayable",
      "type": "constructor"
    },
    {
      "constant": false,
      "inputs": [
        {
          "name": "accessGroup_",
          "type": "uint256"
        }
      ],
      "name": "editPermission",
      "outputs": [],
      "payable": false,
      "stateMutability": "nonpayable",
      "type": "function"
    }
  ],
  "bytecode": "0x608060405234801561001057600080fd5b506040516060806102a78339810180604052606081101561003057600080fd5b81019080805190602001909291908051906020019092919080519060200190929190505050826000806101000a81548173ffffffffffffffffffffffffffffffffffffffff021916908373ffffffffffffffffffffffffffffffffffffffff16021790555081600160006101000a81548173ffffffffffffffffffffffffffffffffffffffff021916908373ffffffffffffffffffffffffffffffffffffffff160217905550806002819055505050506101b8806100ef6000396000f3fe608060405234801561001057600080fd5b506004361061004c5760003560e01c806371f1291c146100515780638da5cb5b1461006f578063d2ccd724146100b9578063f30878c1146100e7575b600080fd5b610059610131565b6040518082815260200191505060405180910390f35b610077610137565b604051808273ffffffffffffffffffffffffffffffffffffffff1673ffffffffffffffffffffffffffffffffffffffff16815260200191505060405180910390f35b6100e5600480360360208110156100cf57600080fd5b810190808035906020019092919050505061015c565b005b6100ef610166565b604051808273ffffffffffffffffffffffffffffffffffffffff1673ffffffffffffffffffffffffffffffffffffffff16815260200191505060405180910390f35b60025481565b6000809054906101000a900473ffffffffffffffffffffffffffffffffffffffff1681565b8060028190555050565b600160009054906101000a900473ffffffffffffffffffffffffffffffffffffffff168156fea165627a7a72305820c533c68f4db2fedf4ac495aaab3e147787e94f87434b750fe30dfc4b10c9d47a0029",
  "source": "pragma solidity ^0.5.8;\n\n/*\n* Contract denoting a patient-provider relationship\n* Contains information needed to obtain patient's data\n* And list of approved viewers\n* With improvement 1: Store patient data in Summary contract\n*/\n\ncontract PPR {\n\taddress public owner; // owner of data i.e. patient\n\taddress public viewer; // other party in PPR e.g. doctor\n\tuint256 public accessGroup;\n\n\tconstructor(address owner_, address viewer_, uint256 accessGroup_) public {\n        owner = owner_;\n        viewer = viewer_;\n        accessGroup = accessGroup_; // default empty string\n\t}\n\t\n\t// Allow patient to update accessPermissions\n    function editPermission(uint256 accessGroup_) public {\n        accessGroup = accessGroup_;\n    }\n}",
  "sourcePath": "/Users/mirashah/Documents/crowdmed/app/contracts/PPR3.sol",
  "compiler": {
    "name": "solc",
    "version": "0.5.8+commit.23d335f2.Emscripten.clang"
  },
  "schemaVersion": "3.0.12",
  "updatedAt": "2020-03-28T08:00:08.379Z",
  "devdoc": {
    "methods": {}
  },
  "userdoc": {
    "methods": {}
  }
}