{
  "contractName": "Search",
  "abi": [
    {
      "constant": true,
      "inputs": [],
      "name": "owner",
      "outputs": [
        {
          "name": "",
          "type": "address"
        }
      ],
      "payable": false,
      "stateMutability": "view",
      "type": "function"
    },
    {
      "constant": true,
      "inputs": [
        {
          "name": "",
          "type": "string"
        },
        {
          "name": "",
          "type": "uint256"
        }
      ],
      "name": "keywordIndex",
      "outputs": [
        {
          "name": "",
          "type": "address"
        }
      ],
      "payable": false,
      "stateMutability": "view",
      "type": "function"
    },
    {
      "inputs": [],
      "payable": false,
      "stateMutability": "nonpayable",
      "type": "constructor"
    },
    {
      "anonymous": false,
      "inputs": [],
      "name": "SearchEvent",
      "type": "event"
    },
    {
      "anonymous": false,
      "inputs": [],
      "name": "UpdateEvent",
      "type": "event"
    },
    {
      "constant": false,
      "inputs": [
        {
          "name": "tokens",
          "type": "string"
        },
        {
          "name": "patient",
          "type": "address"
        }
      ],
      "name": "updateIndex",
      "outputs": [],
      "payable": false,
      "stateMutability": "nonpayable",
      "type": "function"
    },
    {
      "constant": false,
      "inputs": [],
      "name": "getNumTags",
      "outputs": [
        {
          "name": "",
          "type": "uint256"
        }
      ],
      "payable": false,
      "stateMutability": "nonpayable",
      "type": "function"
    },
    {
      "constant": false,
      "inputs": [
        {
          "name": "idx",
          "type": "uint256"
        }
      ],
      "name": "retrieveTags",
      "outputs": [
        {
          "name": "",
          "type": "string"
        }
      ],
      "payable": false,
      "stateMutability": "nonpayable",
      "type": "function"
    },
    {
      "constant": false,
      "inputs": [
        {
          "name": "query",
          "type": "string"
        }
      ],
      "name": "searchIndex",
      "outputs": [
        {
          "name": "",
          "type": "address[]"
        }
      ],
      "payable": false,
      "stateMutability": "nonpayable",
      "type": "function"
    }
  ],
  "bytecode": "0x608060405234801561001057600080fd5b50336000806101000a81548173ffffffffffffffffffffffffffffffffffffffff021916908373ffffffffffffffffffffffffffffffffffffffff160217905550610999806100606000396000f3fe608060405234801561001057600080fd5b50600436106100625760003560e01c8063016bc0bb146100675780638da5cb5b14610142578063b0424f301461018c578063cc476f3414610291578063ece8ef3314610338578063f042321c14610448575b600080fd5b6101406004803603604081101561007d57600080fd5b810190808035906020019064010000000081111561009a57600080fd5b8201836020820111156100ac57600080fd5b803590602001918460018302840111640100000000831117156100ce57600080fd5b91908080601f016020809104026020016040519081016040528093929190818152602001838380828437600081840152601f19601f820116905080830192505050505050509192919290803573ffffffffffffffffffffffffffffffffffffffff169060200190929190505050610466565b005b61014a6105df565b604051808273ffffffffffffffffffffffffffffffffffffffff1673ffffffffffffffffffffffffffffffffffffffff16815260200191505060405180910390f35b61024f600480360360408110156101a257600080fd5b81019080803590602001906401000000008111156101bf57600080fd5b8201836020820111156101d157600080fd5b803590602001918460018302840111640100000000831117156101f357600080fd5b91908080601f016020809104026020016040519081016040528093929190818152602001838380828437600081840152601f19601f82011690508083019250505050505050919291929080359060200190929190505050610604565b604051808273ffffffffffffffffffffffffffffffffffffffff1673ffffffffffffffffffffffffffffffffffffffff16815260200191505060405180910390f35b6102bd600480360360208110156102a757600080fd5b8101908080359060200190929190505050610665565b6040518080602001828103825283818151815260200191508051906020019080838360005b838110156102fd5780820151818401526020810190506102e2565b50505050905090810190601f16801561032a5780820380516001836020036101000a031916815260200191505b509250505060405180910390f35b6103f16004803603602081101561034e57600080fd5b810190808035906020019064010000000081111561036b57600080fd5b82018360208201111561037d57600080fd5b8035906020019184600183028401116401000000008311171561039f57600080fd5b91908080601f016020809104026020016040519081016040528093929190818152602001838380828437600081840152601f19601f82011690508083019250505050505050919291929050505061075b565b6040518080602001828103825283818151815260200191508051906020019060200280838360005b83811015610434578082015181840152602081019050610419565b505050509050019250505060405180910390f35b61045061087e565b6040518082815260200191505060405180910390f35b6001826040518082805190602001908083835b6020831061049c5780518252602082019150602081019050602083039250610479565b6001836020036101000a03801982511681845116808217855250505050505090500191505090815260200160405180910390208190806001815401808255809150509060018203906000526020600020016000909192909190916101000a81548173ffffffffffffffffffffffffffffffffffffffff021916908373ffffffffffffffffffffffffffffffffffffffff16021790555050600260008273ffffffffffffffffffffffffffffffffffffffff1673ffffffffffffffffffffffffffffffffffffffff1681526020019081526020016000208290806001815401808255809150509060018203906000526020600020016000909192909190915090805190602001906105ad9291906108c8565b50507f36ff37f436d9a671f4776bd73e3be89800c29518da3abc0618ef2b18c707481f60405160405180910390a15050565b6000809054906101000a900473ffffffffffffffffffffffffffffffffffffffff1681565b600182805160208101820180518482526020830160208501208183528095505050505050818154811061063357fe5b906000526020600020016000915091509054906101000a900473ffffffffffffffffffffffffffffffffffffffff1681565b6060600260003373ffffffffffffffffffffffffffffffffffffffff1673ffffffffffffffffffffffffffffffffffffffff16815260200190815260200160002082815481106106b157fe5b906000526020600020018054600181600116156101000203166002900480601f01602080910402602001604051908101604052809291908181526020018280546001816001161561010002031660029004801561074f5780601f106107245761010080835404028352916020019161074f565b820191906000526020600020905b81548152906001019060200180831161073257829003601f168201915b50505050509050919050565b60607f53fb3c2b107c116378009de498bae3a615fc37c9b52b7c5dfeab4504b5276d1560405160405180910390a16001826040518082805190602001908083835b602083106107bf578051825260208201915060208101905060208303925061079c565b6001836020036101000a038019825116818451168082178552505050505050905001915050908152602001604051809103902080548060200260200160405190810160405280929190818152602001828054801561087257602002820191906000526020600020905b8160009054906101000a900473ffffffffffffffffffffffffffffffffffffffff1673ffffffffffffffffffffffffffffffffffffffff1681526020019060010190808311610828575b50505050509050919050565b6000600260003373ffffffffffffffffffffffffffffffffffffffff1673ffffffffffffffffffffffffffffffffffffffff16815260200190815260200160002080549050905090565b828054600181600116156101000203166002900490600052602060002090601f016020900481019282601f1061090957805160ff1916838001178555610937565b82800160010185558215610937579182015b8281111561093657825182559160200191906001019061091b565b5b5090506109449190610948565b5090565b61096a91905b8082111561096657600081600090555060010161094e565b5090565b9056fea165627a7a7230582099fa60eab4965cb94552c24b4db0d19699af8721a3b046f7696067f01b56400c0029",
  "source": "pragma solidity ^0.5.8;\n\n/*\n* Contract for searching for patients\n*/\n\ncontract Search {\n\n\taddress public owner; // registering authority\n\n\t\n\tmapping(string => address[]) public keywordIndex;\n\tmapping(address => string[]) private reverseIndex;\n\n\t// events\n\tevent SearchEvent();\n\tevent UpdateEvent();\n\n\tconstructor() public {\n\t\towner = msg.sender;\n\t}\n\n\t/* Register new user i.e. add newUser address to addressResgistry\n\t* Create new summary contract and add to contractRegistry\n\t*/\n\tfunction updateIndex(string memory tokens, address patient) public {\n\t\tkeywordIndex[tokens].push(patient);\n\t\treverseIndex[patient].push(tokens);\n\t\temit UpdateEvent();\n\t}\n\n\tfunction getNumTags() public returns (uint256) {\n\t\treturn reverseIndex[msg.sender].length;\n\t}\n\n\tfunction retrieveTags(uint256 idx) public returns (string memory){\n\t\treturn reverseIndex[msg.sender][idx];\n\t}\n\n\tfunction searchIndex(string memory query) public returns (address[] memory) {\n\t\temit SearchEvent();\n\t\treturn keywordIndex[query];\n\t}\n}",
  "sourcePath": "/Users/mirashah/Documents/crowdmed/app/contracts/Search.sol",
  "compiler": {
    "name": "solc",
    "version": "0.5.8+commit.23d335f2.Emscripten.clang"
  },
  "schemaVersion": "3.0.12",
  "updatedAt": "2020-05-11T07:37:07.485Z",
  "devdoc": {
    "methods": {}
  },
  "userdoc": {
    "methods": {}
  }
}